{
  "contractName": "MTGEX",
  "abi": [
    {
      "constant": true,
      "inputs": [
        {
          "name": "_mtgexId",
          "type": "string"
        }
      ],
      "name": "getCardTokenAddress",
      "outputs": [
        {
          "name": "addr",
          "type": "address"
        }
      ],
      "payable": false,
      "stateMutability": "view",
      "type": "function"
    },
    {
      "constant": false,
      "inputs": [
        {
          "name": "_mtgexId",
          "type": "string"
        }
      ],
      "name": "rejectReceivedRedemption",
      "outputs": [],
      "payable": false,
      "stateMutability": "nonpayable",
      "type": "function"
    },
    {
      "constant": false,
      "inputs": [
        {
          "name": "_mtgexId",
          "type": "string"
        },
        {
          "name": "_from",
          "type": "address"
        },
        {
          "name": "_secret",
          "type": "string"
        }
      ],
      "name": "receiveRedemption",
      "outputs": [],
      "payable": false,
      "stateMutability": "nonpayable",
      "type": "function"
    },
    {
      "constant": false,
      "inputs": [
        {
          "name": "_mtgexId",
          "type": "string"
        },
        {
          "name": "_secret",
          "type": "string"
        }
      ],
      "name": "confirmReceivedRedemption",
      "outputs": [],
      "payable": false,
      "stateMutability": "nonpayable",
      "type": "function"
    },
    {
      "constant": false,
      "inputs": [
        {
          "name": "_mtgjsonId",
          "type": "string"
        },
        {
          "name": "_foil",
          "type": "bool"
        },
        {
          "name": "_condition",
          "type": "string"
        }
      ],
      "name": "createCardContract",
      "outputs": [],
      "payable": false,
      "stateMutability": "nonpayable",
      "type": "function"
    },
    {
      "constant": false,
      "inputs": [
        {
          "name": "_mtgexId",
          "type": "string"
        },
        {
          "name": "_to",
          "type": "address"
        },
        {
          "name": "_amount",
          "type": "uint256"
        }
      ],
      "name": "mintTokens",
      "outputs": [],
      "payable": false,
      "stateMutability": "nonpayable",
      "type": "function"
    },
    {
      "constant": true,
      "inputs": [],
      "name": "owner",
      "outputs": [
        {
          "name": "",
          "type": "address"
        }
      ],
      "payable": false,
      "stateMutability": "view",
      "type": "function"
    },
    {
      "constant": false,
      "inputs": [],
      "name": "reclaimEther",
      "outputs": [],
      "payable": false,
      "stateMutability": "nonpayable",
      "type": "function"
    },
    {
      "constant": true,
      "inputs": [
        {
          "name": "_mtgexId",
          "type": "string"
        }
      ],
      "name": "getMyRedemptionDetails",
      "outputs": [
        {
          "name": "amount",
          "type": "uint256"
        },
        {
          "name": "secret",
          "type": "string"
        }
      ],
      "payable": false,
      "stateMutability": "view",
      "type": "function"
    },
    {
      "constant": false,
      "inputs": [
        {
          "name": "_mtgexId",
          "type": "string"
        }
      ],
      "name": "cancelRedemption",
      "outputs": [],
      "payable": false,
      "stateMutability": "nonpayable",
      "type": "function"
    },
    {
      "constant": false,
      "inputs": [
        {
          "name": "_mtgexId",
          "type": "string"
        },
        {
          "name": "_amount",
          "type": "uint256"
        }
      ],
      "name": "initiateRedemption",
      "outputs": [],
      "payable": false,
      "stateMutability": "nonpayable",
      "type": "function"
    },
    {
      "constant": false,
      "inputs": [
        {
          "name": "newOwner",
          "type": "address"
        }
      ],
      "name": "transferOwnership",
      "outputs": [],
      "payable": false,
      "stateMutability": "nonpayable",
      "type": "function"
    },
    {
      "inputs": [],
      "payable": false,
      "stateMutability": "nonpayable",
      "type": "constructor"
    },
    {
      "payable": false,
      "stateMutability": "nonpayable",
      "type": "fallback"
    },
    {
      "anonymous": false,
      "inputs": [
        {
          "indexed": false,
          "name": "mtgexId",
          "type": "string"
        }
      ],
      "name": "CardAdded",
      "type": "event"
    },
    {
      "anonymous": false,
      "inputs": [
        {
          "indexed": false,
          "name": "mtgexId",
          "type": "string"
        },
        {
          "indexed": false,
          "name": "addr",
          "type": "address"
        },
        {
          "indexed": false,
          "name": "amount",
          "type": "uint256"
        }
      ],
      "name": "CardsMinted",
      "type": "event"
    },
    {
      "anonymous": false,
      "inputs": [
        {
          "indexed": false,
          "name": "mtgexId",
          "type": "string"
        },
        {
          "indexed": false,
          "name": "addr",
          "type": "address"
        },
        {
          "indexed": false,
          "name": "amount",
          "type": "uint256"
        }
      ],
      "name": "RedemptionRequested",
      "type": "event"
    },
    {
      "anonymous": false,
      "inputs": [
        {
          "indexed": false,
          "name": "mtgexId",
          "type": "string"
        },
        {
          "indexed": false,
          "name": "addr",
          "type": "address"
        },
        {
          "indexed": false,
          "name": "amount",
          "type": "uint256"
        },
        {
          "indexed": false,
          "name": "secret",
          "type": "string"
        }
      ],
      "name": "RedemptionReceived",
      "type": "event"
    },
    {
      "anonymous": false,
      "inputs": [
        {
          "indexed": false,
          "name": "mtgexId",
          "type": "string"
        },
        {
          "indexed": false,
          "name": "addr",
          "type": "address"
        },
        {
          "indexed": false,
          "name": "amount",
          "type": "uint256"
        }
      ],
      "name": "RedemptionConfirmed",
      "type": "event"
    },
    {
      "anonymous": false,
      "inputs": [
        {
          "indexed": false,
          "name": "mtgexId",
          "type": "string"
        },
        {
          "indexed": false,
          "name": "addr",
          "type": "address"
        },
        {
          "indexed": false,
          "name": "amount",
          "type": "uint256"
        }
      ],
      "name": "RedemptionRejected",
      "type": "event"
    },
    {
      "anonymous": false,
      "inputs": [
        {
          "indexed": false,
          "name": "mtgexId",
          "type": "string"
        },
        {
          "indexed": false,
          "name": "addr",
          "type": "address"
        },
        {
          "indexed": false,
          "name": "amount",
          "type": "uint256"
        }
      ],
      "name": "RedemptionCancelled",
      "type": "event"
    },
    {
      "anonymous": false,
      "inputs": [
        {
          "indexed": true,
          "name": "previousOwner",
          "type": "address"
        },
        {
          "indexed": true,
          "name": "newOwner",
          "type": "address"
        }
      ],
      "name": "OwnershipTransferred",
      "type": "event"
    }
  ],
  "bytecode": "0x6060604052341561000f57600080fd5b336000806101000a81548173ffffffffffffffffffffffffffffffffffffffff021916908373ffffffffffffffffffffffffffffffffffffffff16021790555060003414151561005e57600080fd5b615bd1806200006e6000396000f300606060405260043610620000c7576000357c0100000000000000000000000000000000000000000000000000000000900463ffffffff16806319d82fd314620000d557806332bf9173146200017557806341edef2c14620001d55780634ffb63de146200029757806351d47dc1146200033a578063643c1de614620003e85780638da5cb5b14620004705780639f727c2714620004c8578063b37c616b14620004e0578063b84b8c3c14620005c3578063c7a668761462000623578063f2fde38b146200068c575b3415620000d357600080fd5b005b3415620000e157600080fd5b62000133600480803590602001908201803590602001908080601f01602080910402602001604051908101604052809392919081815260200183838082843782019150505050505091905050620006c8565b604051808273ffffffffffffffffffffffffffffffffffffffff1673ffffffffffffffffffffffffffffffffffffffff16815260200191505060405180910390f35b34156200018157600080fd5b620001d3600480803590602001908201803590602001908080601f016020809104026020016040519081016040528093929190818152602001838380828437820191505050505050919050506200078d565b005b3415620001e157600080fd5b62000295600480803590602001908201803590602001908080601f0160208091040260200160405190810160405280939291908181526020018383808284378201915050505050509190803573ffffffffffffffffffffffffffffffffffffffff1690602001909190803590602001908201803590602001908080601f0160208091040260200160405190810160405280939291908181526020018383808284378201915050505050509190505062000bce565b005b3415620002a357600080fd5b62000338600480803590602001908201803590602001908080601f0160208091040260200160405190810160405280939291908181526020018383808284378201915050505050509190803590602001908201803590602001908080601f01602080910402602001604051908101604052809392919081815260200183838082843782019150505050505091905050620010b7565b005b34156200034657600080fd5b620003e6600480803590602001908201803590602001908080601f01602080910402602001604051908101604052809392919081815260200183838082843782019150505050505091908035151590602001909190803590602001908201803590602001908080601f01602080910402602001604051908101604052809392919081815260200183838082843782019150505050505091905050620016fe565b005b3415620003f457600080fd5b6200046e600480803590602001908201803590602001908080601f0160208091040260200160405190810160405280939291908181526020018383808284378201915050505050509190803573ffffffffffffffffffffffffffffffffffffffff1690602001909190803590602001909190505062001b1b565b005b34156200047c57600080fd5b6200048662001df6565b604051808273ffffffffffffffffffffffffffffffffffffffff1673ffffffffffffffffffffffffffffffffffffffff16815260200191505060405180910390f35b3415620004d457600080fd5b620004de62001e1b565b005b3415620004ec57600080fd5b6200053e600480803590602001908201803590602001908080601f0160208091040260200160405190810160405280939291908181526020018383808284378201915050505050509190505062001eef565b6040518083815260200180602001828103825283818151815260200191508051906020019080838360005b838110156200058657808201518184015260208101905062000569565b50505050905090810190601f168015620005b45780820380516001836020036101000a031916815260200191505b50935050505060405180910390f35b3415620005cf57600080fd5b62000621600480803590602001908201803590602001908080601f016020809104026020016040519081016040528093929190818152602001838380828437820191505050505050919050506200223d565b005b34156200062f57600080fd5b6200068a600480803590602001908201803590602001908080601f01602080910402602001604051908101604052809392919081815260200183838082843782019150505050505091908035906020019091905050620029bf565b005b34156200069857600080fd5b620006c6600480803573ffffffffffffffffffffffffffffffffffffffff169060200190919050506200312b565b005b60008060016000846040518082805190602001908083835b602083101515620007075780518252602082019150602081019050602083039250620006e0565b6001836020036101000a03801982511681845116808217855250505050505090500191505060405180910390206000191660001916815260200190815260200160002060009054906101000a900473ffffffffffffffffffffffffffffffffffffffff169050620007788162003282565b15156200078457600080fd5b80915050919050565b600060026000836040518082805190602001908083835b602083101515620007cb5780518252602082019150602081019050602083039250620007a4565b6001836020036101000a03801982511681845116808217855250505050505090500191505060405180910390206000191660001916815260200190815260200160002060003373ffffffffffffffffffffffffffffffffffffffff1673ffffffffffffffffffffffffffffffffffffffff168152602001908152602001600020905062000a108160806040519081016040529081600082018054600181600116156101000203166002900480601f016020809104026020016040519081016040528092919081815260200182805460018160011615610100020316600290048015620008fb5780601f10620008cf57610100808354040283529160200191620008fb565b820191906000526020600020905b815481529060010190602001808311620008dd57829003601f168201915b505050505081526020016001820160009054906101000a900473ffffffffffffffffffffffffffffffffffffffff1673ffffffffffffffffffffffffffffffffffffffff1673ffffffffffffffffffffffffffffffffffffffff16815260200160028201548152602001600382018054600181600116156101000203166002900480601f01602080910402602001604051908101604052809291908181526020018280546001816001161561010002031660029004801562000a015780601f10620009d55761010080835404028352916020019162000a01565b820191906000526020600020905b815481529060010190602001808311620009e357829003601f168201915b505050505081525050620032a5565b151562000a1c57600080fd5b3373ffffffffffffffffffffffffffffffffffffffff168160010160009054906101000a900473ffffffffffffffffffffffffffffffffffffffff1673ffffffffffffffffffffffffffffffffffffffff1614151562000a7b57600080fd5b602060405190810160405280600081525081600301908051906020019062000aa59291906200360f565b507f4d667092d6dd7efea7d6d6e9d039c97268aa8d5b50e5aa6c2ab66b9b5be7167c816000018260010160009054906101000a900473ffffffffffffffffffffffffffffffffffffffff16836002015460405180806020018473ffffffffffffffffffffffffffffffffffffffff1673ffffffffffffffffffffffffffffffffffffffff16815260200183815260200182810382528581815460018160011615610100020316600290048152602001915080546001816001161561010002031660029004801562000bba5780601f1062000b8e5761010080835404028352916020019162000bba565b820191906000526020600020905b81548152906001019060200180831162000b9c57829003601f168201915b505094505050505060405180910390a15050565b60008060009054906101000a900473ffffffffffffffffffffffffffffffffffffffff1673ffffffffffffffffffffffffffffffffffffffff163373ffffffffffffffffffffffffffffffffffffffff1614151562000c2c57600080fd5b60026000856040518082805190602001908083835b60208310151562000c68578051825260208201915060208101905060208303925062000c41565b6001836020036101000a03801982511681845116808217855250505050505090500191505060405180910390206000191660001916815260200190815260200160002060008473ffffffffffffffffffffffffffffffffffffffff1673ffffffffffffffffffffffffffffffffffffffff168152602001908152602001600020905062000ead8160806040519081016040529081600082018054600181600116156101000203166002900480601f01602080910402602001604051908101604052809291908181526020018280546001816001161561010002031660029004801562000d985780601f1062000d6c5761010080835404028352916020019162000d98565b820191906000526020600020905b81548152906001019060200180831162000d7a57829003601f168201915b505050505081526020016001820160009054906101000a900473ffffffffffffffffffffffffffffffffffffffff1673ffffffffffffffffffffffffffffffffffffffff1673ffffffffffffffffffffffffffffffffffffffff16815260200160028201548152602001600382018054600181600116156101000203166002900480601f01602080910402602001604051908101604052809291908181526020018280546001816001161561010002031660029004801562000e9e5780601f1062000e725761010080835404028352916020019162000e9e565b820191906000526020600020905b81548152906001019060200180831162000e8057829003601f168201915b505050505081525050620032a5565b151562000eb957600080fd5b60008160030180546001816001161561010002031660029004905014151562000ee157600080fd5b8181600301908051906020019062000efb9291906200360f565b507f7c1153216bdfe91b819db82c121e9322b29decbe81acd34ba2a7f10ed9b92122816000018260010160009054906101000a900473ffffffffffffffffffffffffffffffffffffffff1683600201548460030160405180806020018573ffffffffffffffffffffffffffffffffffffffff1673ffffffffffffffffffffffffffffffffffffffff16815260200184815260200180602001838103835287818154600181600116156101000203166002900481526020019150805460018160011615610100020316600290048015620010185780601f1062000fec5761010080835404028352916020019162001018565b820191906000526020600020905b81548152906001019060200180831162000ffa57829003601f168201915b50508381038252848181546001816001161561010002031660029004815260200191508054600181600116156101000203166002900480156200109f5780601f1062001073576101008083540402835291602001916200109f565b820191906000526020600020905b8154815290600101906020018083116200108157829003601f168201915b5050965050505050505060405180910390a150505050565b600060026000846040518082805190602001908083835b602083101515620010f55780518252602082019150602081019050602083039250620010ce565b6001836020036101000a03801982511681845116808217855250505050505090500191505060405180910390206000191660001916815260200190815260200160002060003373ffffffffffffffffffffffffffffffffffffffff1673ffffffffffffffffffffffffffffffffffffffff16815260200190815260200160002090506200133a8160806040519081016040529081600082018054600181600116156101000203166002900480601f016020809104026020016040519081016040528092919081815260200182805460018160011615610100020316600290048015620012255780601f10620011f95761010080835404028352916020019162001225565b820191906000526020600020905b8154815290600101906020018083116200120757829003601f168201915b505050505081526020016001820160009054906101000a900473ffffffffffffffffffffffffffffffffffffffff1673ffffffffffffffffffffffffffffffffffffffff1673ffffffffffffffffffffffffffffffffffffffff16815260200160028201548152602001600382018054600181600116156101000203166002900480601f0160208091040260200160405190810160405280929190818152602001828054600181600116156101000203166002900480156200132b5780601f10620012ff576101008083540402835291602001916200132b565b820191906000526020600020905b8154815290600101906020018083116200130d57829003601f168201915b505050505081525050620032a5565b15156200134657600080fd5b3373ffffffffffffffffffffffffffffffffffffffff168160010160009054906101000a900473ffffffffffffffffffffffffffffffffffffffff1673ffffffffffffffffffffffffffffffffffffffff16141515620013a557600080fd5b60008160030180546001816001161561010002031660029004905014151515620013ce57600080fd5b816040518082805190602001908083835b602083101515620014065780518252602082019150602081019050602083039250620013df565b6001836020036101000a0380198251168184511680821785525050505050509050019150506040518091039020600019168160030160405180828054600181600116156101000203166002900480156200149a5780601f10620014775761010080835404028352918201916200149a565b820191906000526020600020905b81548152906001019060200180831162001485575b5050915050604051809103902060001916141515620014b857600080fd5b7f7f78df4566b51f38a9a2b578fa61cb9c7b738f17593a069be05aa35f3172187f816000018260010160009054906101000a900473ffffffffffffffffffffffffffffffffffffffff16836002015460405180806020018473ffffffffffffffffffffffffffffffffffffffff1673ffffffffffffffffffffffffffffffffffffffff168152602001838152602001828103825285818154600181600116156101000203166002900481526020019150805460018160011615610100020316600290048015620015cc5780601f10620015a057610100808354040283529160200191620015cc565b820191906000526020600020905b815481529060010190602001808311620015ae57829003601f168201915b505094505050505060405180910390a160026000826000016040518082805460018160011615610100020316600290048015620016435780601f106200162057610100808354040283529182019162001643565b820191906000526020600020905b8154815290600101906020018083116200162e575b505091505060405180910390206000191660001916815260200190815260200160002060003373ffffffffffffffffffffffffffffffffffffffff1673ffffffffffffffffffffffffffffffffffffffff16815260200190815260200160002060008082016000620016b6919062003696565b6001820160006101000a81549073ffffffffffffffffffffffffffffffffffffffff02191690556002820160009055600382016000620016f7919062003696565b5050505050565b62001708620036e2565b60008060009054906101000a900473ffffffffffffffffffffffffffffffffffffffff1673ffffffffffffffffffffffffffffffffffffffff163373ffffffffffffffffffffffffffffffffffffffff161415156200176657600080fd5b62001773858585620032b6565b915060016000836040518082805190602001908083835b602083101515620017b157805182526020820191506020810190506020830392506200178a565b6001836020036101000a03801982511681845116808217855250505050505090500191505060405180910390206000191660001916815260200190815260200160002060009054906101000a900473ffffffffffffffffffffffffffffffffffffffff169050620018228162003282565b1515600015151415156200183557600080fd5b8185858562001843620036f6565b8080602001806020018515151515815260200180602001848103845288818151815260200191508051906020019080838360005b838110156200189457808201518184015260208101905062001877565b50505050905090810190601f168015620018c25780820380516001836020036101000a031916815260200191505b50848103835287818151815260200191508051906020019080838360005b83811015620018fd578082015181840152602081019050620018e0565b50505050905090810190601f1680156200192b5780820380516001836020036101000a031916815260200191505b50848103825285818151815260200191508051906020019080838360005b838110156200196657808201518184015260208101905062001949565b50505050905090810190601f168015620019945780820380516001836020036101000a031916815260200191505b50975050505050505050604051809103906000f0801515620019b557600080fd5b90508060016000846040518082805190602001908083835b602083101515620019f45780518252602082019150602081019050602083039250620019cd565b6001836020036101000a03801982511681845116808217855250505050505090500191505060405180910390206000191660001916815260200190815260200160002060006101000a81548173ffffffffffffffffffffffffffffffffffffffff021916908373ffffffffffffffffffffffffffffffffffffffff1602179055507f860265912cc14c37fecc0c54774ff63a60129de066ab276ceb761bb8da63eb0e826040518080602001828103825283818151815260200191508051906020019080838360005b8381101562001ad957808201518184015260208101905062001abc565b50505050905090810190601f16801562001b075780820380516001836020036101000a031916815260200191505b509250505060405180910390a15050505050565b60008060009054906101000a900473ffffffffffffffffffffffffffffffffffffffff1673ffffffffffffffffffffffffffffffffffffffff163373ffffffffffffffffffffffffffffffffffffffff1614151562001b7957600080fd5b60008211151562001b8957600080fd5b60016000856040518082805190602001908083835b60208310151562001bc5578051825260208201915060208101905060208303925062001b9e565b6001836020036101000a03801982511681845116808217855250505050505090500191505060405180910390206000191660001916815260200190815260200160002060009054906101000a900473ffffffffffffffffffffffffffffffffffffffff16905062001c368162003282565b151562001c4257600080fd5b8073ffffffffffffffffffffffffffffffffffffffff166340c10f1984670de0b6b3a764000085026000604051602001526040518363ffffffff167c0100000000000000000000000000000000000000000000000000000000028152600401808373ffffffffffffffffffffffffffffffffffffffff1673ffffffffffffffffffffffffffffffffffffffff16815260200182815260200192505050602060405180830381600087803b151562001cf857600080fd5b6102c65a03f1151562001d0a57600080fd5b50505060405180519050507f863ae33f42079d51ad01cc404e55be9edc7940be7c05ea40e56e242e5d8059aa84848460405180806020018473ffffffffffffffffffffffffffffffffffffffff1673ffffffffffffffffffffffffffffffffffffffff168152602001838152602001828103825285818151815260200191508051906020019080838360005b8381101562001db357808201518184015260208101905062001d96565b50505050905090810190601f16801562001de15780820380516001836020036101000a031916815260200191505b5094505050505060405180910390a150505050565b6000809054906101000a900473ffffffffffffffffffffffffffffffffffffffff1681565b6000809054906101000a900473ffffffffffffffffffffffffffffffffffffffff1673ffffffffffffffffffffffffffffffffffffffff163373ffffffffffffffffffffffffffffffffffffffff1614151562001e7757600080fd5b6000809054906101000a900473ffffffffffffffffffffffffffffffffffffffff1673ffffffffffffffffffffffffffffffffffffffff166108fc3073ffffffffffffffffffffffffffffffffffffffff16319081150290604051600060405180830381858888f19350505050151562001eed57fe5b565b600062001efb620036e2565b600060026000856040518082805190602001908083835b60208310151562001f39578051825260208201915060208101905060208303925062001f12565b6001836020036101000a03801982511681845116808217855250505050505090500191505060405180910390206000191660001916815260200190815260200160002060003373ffffffffffffffffffffffffffffffffffffffff1673ffffffffffffffffffffffffffffffffffffffff16815260200190815260200160002090506200217e8160806040519081016040529081600082018054600181600116156101000203166002900480601f016020809104026020016040519081016040528092919081815260200182805460018160011615610100020316600290048015620020695780601f106200203d5761010080835404028352916020019162002069565b820191906000526020600020905b8154815290600101906020018083116200204b57829003601f168201915b505050505081526020016001820160009054906101000a900473ffffffffffffffffffffffffffffffffffffffff1673ffffffffffffffffffffffffffffffffffffffff1673ffffffffffffffffffffffffffffffffffffffff16815260200160028201548152602001600382018054600181600116156101000203166002900480601f0160208091040260200160405190810160405280929190818152602001828054600181600116156101000203166002900480156200216f5780601f1062002143576101008083540402835291602001916200216f565b820191906000526020600020905b8154815290600101906020018083116200215157829003601f168201915b505050505081525050620032a5565b15156200218a57600080fd5b806002015481600301808054600181600116156101000203166002900480601f0160208091040260200160405190810160405280929190818152602001828054600181600116156101000203166002900480156200222c5780601f1062002200576101008083540402835291602001916200222c565b820191906000526020600020905b8154815290600101906020018083116200220e57829003601f168201915b505050505090509250925050915091565b60008060026000846040518082805190602001908083835b6020831015156200227c578051825260208201915060208101905060208303925062002255565b6001836020036101000a03801982511681845116808217855250505050505090500191505060405180910390206000191660001916815260200190815260200160002060003373ffffffffffffffffffffffffffffffffffffffff1673ffffffffffffffffffffffffffffffffffffffff1681526020019081526020016000209150620024c18260806040519081016040529081600082018054600181600116156101000203166002900480601f016020809104026020016040519081016040528092919081815260200182805460018160011615610100020316600290048015620023ac5780601f106200238057610100808354040283529160200191620023ac565b820191906000526020600020905b8154815290600101906020018083116200238e57829003601f168201915b505050505081526020016001820160009054906101000a900473ffffffffffffffffffffffffffffffffffffffff1673ffffffffffffffffffffffffffffffffffffffff1673ffffffffffffffffffffffffffffffffffffffff16815260200160028201548152602001600382018054600181600116156101000203166002900480601f016020809104026020016040519081016040528092919081815260200182805460018160011615610100020316600290048015620024b25780601f106200248657610100808354040283529160200191620024b2565b820191906000526020600020905b8154815290600101906020018083116200249457829003601f168201915b505050505081525050620032a5565b1515620024cd57600080fd5b600082600301805460018160011615610100020316600290049050141515620024f557600080fd5b600160008360000160405180828054600181600116156101000203166002900480156200255c5780601f10620025395761010080835404028352918201916200255c565b820191906000526020600020905b81548152906001019060200180831162002547575b505091505060405180910390206000191660001916815260200190815260200160002060009054906101000a900473ffffffffffffffffffffffffffffffffffffffff1690508073ffffffffffffffffffffffffffffffffffffffff166340c10f1933670de0b6b3a76400008560020154026000604051602001526040518363ffffffff167c0100000000000000000000000000000000000000000000000000000000028152600401808373ffffffffffffffffffffffffffffffffffffffff1673ffffffffffffffffffffffffffffffffffffffff16815260200182815260200192505050602060405180830381600087803b15156200265c57600080fd5b6102c65a03f115156200266e57600080fd5b50505060405180519050507f863ae33f42079d51ad01cc404e55be9edc7940be7c05ea40e56e242e5d8059aa8260000133846002015460405180806020018473ffffffffffffffffffffffffffffffffffffffff1673ffffffffffffffffffffffffffffffffffffffff168152602001838152602001828103825285818154600181600116156101000203166002900481526020019150805460018160011615610100020316600290048015620027695780601f106200273d5761010080835404028352916020019162002769565b820191906000526020600020905b8154815290600101906020018083116200274b57829003601f168201915b505094505050505060405180910390a17f45eb938b20f3d1b072cc61d6dc812375837c38786ae9ca928f78431cfdf68409826000018360010160009054906101000a900473ffffffffffffffffffffffffffffffffffffffff16846002015460405180806020018473ffffffffffffffffffffffffffffffffffffffff1673ffffffffffffffffffffffffffffffffffffffff1681526020018381526020018281038252858181546001816001161561010002031660029004815260200191508054600181600116156101000203166002900480156200288d5780601f1062002861576101008083540402835291602001916200288d565b820191906000526020600020905b8154815290600101906020018083116200286f57829003601f168201915b505094505050505060405180910390a160026000836000016040518082805460018160011615610100020316600290048015620029045780601f10620028e157610100808354040283529182019162002904565b820191906000526020600020905b815481529060010190602001808311620028ef575b505091505060405180910390206000191660001916815260200190815260200160002060003373ffffffffffffffffffffffffffffffffffffffff1673ffffffffffffffffffffffffffffffffffffffff1681526020019081526020016000206000808201600062002977919062003696565b6001820160006101000a81549073ffffffffffffffffffffffffffffffffffffffff02191690556002820160009055600382016000620029b8919062003696565b5050505050565b600080151562002c4260026000866040518082805190602001908083835b60208310151562002a045780518252602082019150602081019050602083039250620029dd565b6001836020036101000a03801982511681845116808217855250505050505090500191505060405180910390206000191660001916815260200190815260200160002060003373ffffffffffffffffffffffffffffffffffffffff1673ffffffffffffffffffffffffffffffffffffffff16815260200190815260200160002060806040519081016040529081600082018054600181600116156101000203166002900480601f01602080910402602001604051908101604052809291908181526020018280546001816001161561010002031660029004801562002b2d5780601f1062002b015761010080835404028352916020019162002b2d565b820191906000526020600020905b81548152906001019060200180831162002b0f57829003601f168201915b505050505081526020016001820160009054906101000a900473ffffffffffffffffffffffffffffffffffffffff1673ffffffffffffffffffffffffffffffffffffffff1673ffffffffffffffffffffffffffffffffffffffff16815260200160028201548152602001600382018054600181600116156101000203166002900480601f01602080910402602001604051908101604052809291908181526020018280546001816001161561010002031660029004801562002c335780601f1062002c075761010080835404028352916020019162002c33565b820191906000526020600020905b81548152906001019060200180831162002c1557829003601f168201915b505050505081525050620032a5565b151514151562002c5157600080fd5b60016000846040518082805190602001908083835b60208310151562002c8d578051825260208201915060208101905060208303925062002c66565b6001836020036101000a03801982511681845116808217855250505050505090500191505060405180910390206000191660001916815260200190815260200160002060009054906101000a900473ffffffffffffffffffffffffffffffffffffffff16905062002cfe8162003282565b151562002d0a57600080fd5b60008211151562002d1a57600080fd5b670de0b6b3a764000082028173ffffffffffffffffffffffffffffffffffffffff166370a08231336000604051602001526040518263ffffffff167c0100000000000000000000000000000000000000000000000000000000028152600401808273ffffffffffffffffffffffffffffffffffffffff1673ffffffffffffffffffffffffffffffffffffffff168152602001915050602060405180830381600087803b151562002dc957600080fd5b6102c65a03f1151562002ddb57600080fd5b505050604051805190501015151562002df357600080fd5b8073ffffffffffffffffffffffffffffffffffffffff16639dc29fac33670de0b6b3a764000085026040518363ffffffff167c0100000000000000000000000000000000000000000000000000000000028152600401808373ffffffffffffffffffffffffffffffffffffffff1673ffffffffffffffffffffffffffffffffffffffff16815260200182815260200192505050600060405180830381600087803b151562002ea057600080fd5b6102c65a03f1151562002eb257600080fd5b5050506080604051908101604052808481526020013373ffffffffffffffffffffffffffffffffffffffff168152602001838152602001602060405190810160405280600081525081525060026000856040518082805190602001908083835b60208310151562002f39578051825260208201915060208101905060208303925062002f12565b6001836020036101000a03801982511681845116808217855250505050505090500191505060405180910390206000191660001916815260200190815260200160002060003373ffffffffffffffffffffffffffffffffffffffff1673ffffffffffffffffffffffffffffffffffffffff168152602001908152602001600020600082015181600001908051906020019062002fd792919062003707565b5060208201518160010160006101000a81548173ffffffffffffffffffffffffffffffffffffffff021916908373ffffffffffffffffffffffffffffffffffffffff1602179055506040820151816002015560608201518160030190805190602001906200304792919062003707565b509050507ff3545014f27bcc0b6e9d4958cf2268e894781eda5a9d744d76ed59bd7ae860c783338460405180806020018473ffffffffffffffffffffffffffffffffffffffff1673ffffffffffffffffffffffffffffffffffffffff168152602001838152602001828103825285818151815260200191508051906020019080838360005b83811015620030e9578082015181840152602081019050620030cc565b50505050905090810190601f168015620031175780820380516001836020036101000a031916815260200191505b5094505050505060405180910390a1505050565b6000809054906101000a900473ffffffffffffffffffffffffffffffffffffffff1673ffffffffffffffffffffffffffffffffffffffff163373ffffffffffffffffffffffffffffffffffffffff161415156200318757600080fd5b600073ffffffffffffffffffffffffffffffffffffffff168173ffffffffffffffffffffffffffffffffffffffff1614151515620031c457600080fd5b8073ffffffffffffffffffffffffffffffffffffffff166000809054906101000a900473ffffffffffffffffffffffffffffffffffffffff1673ffffffffffffffffffffffffffffffffffffffff167f8be0079c531659141344cd1fd0a4f28419497f9722a3daafe3b4186f6b6457e060405160405180910390a3806000806101000a81548173ffffffffffffffffffffffffffffffffffffffff021916908373ffffffffffffffffffffffffffffffffffffffff16021790555050565b6000808273ffffffffffffffffffffffffffffffffffffffff1614159050919050565b600080826000015151119050919050565b620032c0620036e2565b62003345828462003307576040805190810160405280600481526020017f5f6e665f000000000000000000000000000000000000000000000000000000008152506200333e565b6040805190810160405280600481526020017f5f666c5f000000000000000000000000000000000000000000000000000000008152505b866200334e565b90509392505050565b62003358620036e2565b620033626200378e565b6200336c6200378e565b620033766200378e565b62003380620036e2565b6200338a6200378e565b6000808a96508995508894508451865188510101604051805910620033ac5750595b9080825280601f01601f1916602001820160405250935083925060009150600090505b865181101562003486578681815181101515620033e857fe5b9060200101517f010000000000000000000000000000000000000000000000000000000000000090047f01000000000000000000000000000000000000000000000000000000000000000283838060010194508151811015156200344857fe5b9060200101907effffffffffffffffffffffffffffffffffffffffffffffffffffffffffffff1916908160001a9053508080600101915050620033cf565b600090505b855181101562003542578581815181101515620034a457fe5b9060200101517f010000000000000000000000000000000000000000000000000000000000000090047f01000000000000000000000000000000000000000000000000000000000000000283838060010194508151811015156200350457fe5b9060200101907effffffffffffffffffffffffffffffffffffffffffffffffffffffffffffff1916908160001a90535080806001019150506200348b565b600090505b8451811015620035fe5784818151811015156200356057fe5b9060200101517f010000000000000000000000000000000000000000000000000000000000000090047f0100000000000000000000000000000000000000000000000000000000000000028383806001019450815181101515620035c057fe5b9060200101907effffffffffffffffffffffffffffffffffffffffffffffffffffffffffffff1916908160001a905350808060010191505062003547565b829750505050505050509392505050565b828054600181600116156101000203166002900490600052602060002090601f016020900481019282601f106200365257805160ff191683800117855562003683565b8280016001018555821562003683579182015b828111156200368257825182559160200191906001019062003665565b5b509050620036929190620037a2565b5090565b50805460018160011615610100020316600290046000825580601f10620036be5750620036df565b601f016020900490600052602060002090810190620036de9190620037a2565b5b50565b602060405190810160405280600081525090565b6040516123db80620037cb83390190565b828054600181600116156101000203166002900490600052602060002090601f016020900481019282601f106200374a57805160ff19168380011785556200377b565b828001600101855582156200377b579182015b828111156200377a5782518255916020019190600101906200375d565b5b5090506200378a9190620037a2565b5090565b602060405190810160405280600081525090565b620037c791905b80821115620037c3576000816000905550600101620037a9565b5090565b90560060606040526000600360146101000a81548160ff0219169083151502179055506012600360156101000a81548160ff021916908360ff1602179055506040805190810160405280600881526020017f6d746765782e696f000000000000000000000000000000000000000000000000815250600490805190602001906200008892919062000386565b5034156200009557600080fd5b604051620023db380380620023db8339810160405280805182019190602001805182019190602001805190602001909190805182019190505033600360006101000a81548173ffffffffffffffffffffffffffffffffffffffff021916908373ffffffffffffffffffffffffffffffffffffffff1602179055506000341415156200011f57600080fd5b62000174816040805190810160405280600281526020017f6e6d000000000000000000000000000000000000000000000000000000000000815250620002a96401000000000262001e91176401000000009004565b80620001d15750620001d0816040805190810160405280600281526020017f706c000000000000000000000000000000000000000000000000000000000000815250620002a96401000000000262001e91176401000000009004565b5b806200022e57506200022d816040805190810160405280600281526020017f6870000000000000000000000000000000000000000000000000000000000000815250620002a96401000000000262001e91176401000000009004565b5b15156200023a57600080fd5b83600590805190602001906200025292919062000386565b5082600690805190602001906200026b92919062000386565b5081600760006101000a81548160ff02191690831515021790555080600890805190602001906200029e92919062000386565b505050505062000435565b6000816040518082805190602001908083835b602083101515620002e35780518252602082019150602081019050602083039250620002bc565b6001836020036101000a038019825116818451168082178552505050505050905001915050604051809103902060001916836040518082805190602001908083835b6020831015156200034c578051825260208201915060208101905060208303925062000325565b6001836020036101000a03801982511681845116808217855250505050505090500191505060405180910390206000191614905092915050565b828054600181600116156101000203166002900490600052602060002090601f016020900481019282601f10620003c957805160ff1916838001178555620003fa565b82800160010185558215620003fa579182015b82811115620003f9578251825591602001919060010190620003dc565b5b5090506200040991906200040d565b5090565b6200043291905b808211156200042e57600081600090555060010162000414565b5090565b90565b611f9680620004456000396000f300606060405260043610610128576000357c0100000000000000000000000000000000000000000000000000000000900463ffffffff16806305d2035b1461013557806306fdde0314610162578063095ea7b3146101f0578063151728701461024a57806318160ddd146102d857806323b872dd14610301578063313ce5671461037a57806340c10f19146103a957806342966c6814610403578063661884631461042657806370a08231146104805780637d64bcb4146104cd5780638da5cb5b146104fa57806395d89b411461054f5780639dc29fac146105dd5780639f727c271461061f578063a9059cbb14610634578063c50313311461068e578063d73dd6231461071c578063dd62ed3e14610776578063e13c7bef146107e2578063f2fde38b1461080f575b341561013357600080fd5b005b341561014057600080fd5b610148610848565b604051808215151515815260200191505060405180910390f35b341561016d57600080fd5b61017561085b565b6040518080602001828103825283818151815260200191508051906020019080838360005b838110156101b557808201518184015260208101905061019a565b50505050905090810190601f1680156101e25780820380516001836020036101000a031916815260200191505b509250505060405180910390f35b34156101fb57600080fd5b610230600480803573ffffffffffffffffffffffffffffffffffffffff169060200190919080359060200190919050506108f9565b604051808215151515815260200191505060405180910390f35b341561025557600080fd5b61025d6109eb565b6040518080602001828103825283818151815260200191508051906020019080838360005b8381101561029d578082015181840152602081019050610282565b50505050905090810190601f1680156102ca5780820380516001836020036101000a031916815260200191505b509250505060405180910390f35b34156102e357600080fd5b6102eb610a89565b6040518082815260200191505060405180910390f35b341561030c57600080fd5b610360600480803573ffffffffffffffffffffffffffffffffffffffff1690602001909190803573ffffffffffffffffffffffffffffffffffffffff16906020019091908035906020019091905050610a8f565b604051808215151515815260200191505060405180910390f35b341561038557600080fd5b61038d610e4e565b604051808260ff1660ff16815260200191505060405180910390f35b34156103b457600080fd5b6103e9600480803573ffffffffffffffffffffffffffffffffffffffff16906020019091908035906020019091905050610e61565b604051808215151515815260200191505060405180910390f35b341561040e57600080fd5b6104246004808035906020019091905050611049565b005b341561043157600080fd5b610466600480803573ffffffffffffffffffffffffffffffffffffffff169060200190919080359060200190919050506110b5565b604051808215151515815260200191505060405180910390f35b341561048b57600080fd5b6104b7600480803573ffffffffffffffffffffffffffffffffffffffff16906020019091905050611346565b6040518082815260200191505060405180910390f35b34156104d857600080fd5b6104e061138f565b604051808215151515815260200191505060405180910390f35b341561050557600080fd5b61050d611457565b604051808273ffffffffffffffffffffffffffffffffffffffff1673ffffffffffffffffffffffffffffffffffffffff16815260200191505060405180910390f35b341561055a57600080fd5b61056261147d565b6040518080602001828103825283818151815260200191508051906020019080838360005b838110156105a2578082015181840152602081019050610587565b50505050905090810190601f1680156105cf5780820380516001836020036101000a031916815260200191505b509250505060405180910390f35b34156105e857600080fd5b61061d600480803573ffffffffffffffffffffffffffffffffffffffff1690602001909190803590602001909190505061151b565b005b341561062a57600080fd5b6106326116d6565b005b341561063f57600080fd5b610674600480803573ffffffffffffffffffffffffffffffffffffffff169060200190919080359060200190919050506117aa565b604051808215151515815260200191505060405180910390f35b341561069957600080fd5b6106a16119ce565b6040518080602001828103825283818151815260200191508051906020019080838360005b838110156106e15780820151818401526020810190506106c6565b50505050905090810190601f16801561070e5780820380516001836020036101000a031916815260200191505b509250505060405180910390f35b341561072757600080fd5b61075c600480803573ffffffffffffffffffffffffffffffffffffffff16906020019091908035906020019091905050611a6c565b604051808215151515815260200191505060405180910390f35b341561078157600080fd5b6107cc600480803573ffffffffffffffffffffffffffffffffffffffff1690602001909190803573ffffffffffffffffffffffffffffffffffffffff16906020019091905050611c68565b6040518082815260200191505060405180910390f35b34156107ed57600080fd5b6107f5611cef565b604051808215151515815260200191505060405180910390f35b341561081a57600080fd5b610846600480803573ffffffffffffffffffffffffffffffffffffffff16906020019091905050611d02565b005b600360149054906101000a900460ff1681565b60058054600181600116156101000203166002900480601f0160208091040260200160405190810160405280929190818152602001828054600181600116156101000203166002900480156108f15780601f106108c6576101008083540402835291602001916108f1565b820191906000526020600020905b8154815290600101906020018083116108d457829003601f168201915b505050505081565b600081600260003373ffffffffffffffffffffffffffffffffffffffff1673ffffffffffffffffffffffffffffffffffffffff16815260200190815260200160002060008573ffffffffffffffffffffffffffffffffffffffff1673ffffffffffffffffffffffffffffffffffffffff168152602001908152602001600020819055508273ffffffffffffffffffffffffffffffffffffffff163373ffffffffffffffffffffffffffffffffffffffff167f8c5be1e5ebec7d5bd14f71427d1e84f3dd0314c0f7b2291e5b200ac8c7c3b925846040518082815260200191505060405180910390a36001905092915050565b60068054600181600116156101000203166002900480601f016020809104026020016040519081016040528092919081815260200182805460018160011615610100020316600290048015610a815780601f10610a5657610100808354040283529160200191610a81565b820191906000526020600020905b815481529060010190602001808311610a6457829003601f168201915b505050505081565b60005481565b60008073ffffffffffffffffffffffffffffffffffffffff168373ffffffffffffffffffffffffffffffffffffffff1614151515610acc57600080fd5b600160008573ffffffffffffffffffffffffffffffffffffffff1673ffffffffffffffffffffffffffffffffffffffff168152602001908152602001600020548211151515610b1a57600080fd5b600260008573ffffffffffffffffffffffffffffffffffffffff1673ffffffffffffffffffffffffffffffffffffffff16815260200190815260200160002060003373ffffffffffffffffffffffffffffffffffffffff1673ffffffffffffffffffffffffffffffffffffffff168152602001908152602001600020548211151515610ba557600080fd5b610bf782600160008773ffffffffffffffffffffffffffffffffffffffff1673ffffffffffffffffffffffffffffffffffffffff16815260200190815260200160002054611e5a90919063ffffffff16565b600160008673ffffffffffffffffffffffffffffffffffffffff1673ffffffffffffffffffffffffffffffffffffffff16815260200190815260200160002081905550610c8c82600160008673ffffffffffffffffffffffffffffffffffffffff1673ffffffffffffffffffffffffffffffffffffffff16815260200190815260200160002054611e7390919063ffffffff16565b600160008573ffffffffffffffffffffffffffffffffffffffff1673ffffffffffffffffffffffffffffffffffffffff16815260200190815260200160002081905550610d5e82600260008773ffffffffffffffffffffffffffffffffffffffff1673ffffffffffffffffffffffffffffffffffffffff16815260200190815260200160002060003373ffffffffffffffffffffffffffffffffffffffff1673ffffffffffffffffffffffffffffffffffffffff16815260200190815260200160002054611e5a90919063ffffffff16565b600260008673ffffffffffffffffffffffffffffffffffffffff1673ffffffffffffffffffffffffffffffffffffffff16815260200190815260200160002060003373ffffffffffffffffffffffffffffffffffffffff1673ffffffffffffffffffffffffffffffffffffffff168152602001908152602001600020819055508273ffffffffffffffffffffffffffffffffffffffff168473ffffffffffffffffffffffffffffffffffffffff167fddf252ad1be2c89b69c2b068fc378daa952ba7f163c4a11628f55a4df523b3ef846040518082815260200191505060405180910390a3600190509392505050565b600360159054906101000a900460ff1681565b6000600360009054906101000a900473ffffffffffffffffffffffffffffffffffffffff1673ffffffffffffffffffffffffffffffffffffffff163373ffffffffffffffffffffffffffffffffffffffff16141515610ebf57600080fd5b600360149054906101000a900460ff16151515610edb57600080fd5b610ef082600054611e7390919063ffffffff16565b600081905550610f4882600160008673ffffffffffffffffffffffffffffffffffffffff1673ffffffffffffffffffffffffffffffffffffffff16815260200190815260200160002054611e7390919063ffffffff16565b600160008573ffffffffffffffffffffffffffffffffffffffff1673ffffffffffffffffffffffffffffffffffffffff168152602001908152602001600020819055508273ffffffffffffffffffffffffffffffffffffffff167f0f6798a560793a54c3bcfe86a93cde1e73087d944c0ea20544137d4121396885836040518082815260200191505060405180910390a28273ffffffffffffffffffffffffffffffffffffffff16600073ffffffffffffffffffffffffffffffffffffffff167fddf252ad1be2c89b69c2b068fc378daa952ba7f163c4a11628f55a4df523b3ef846040518082815260200191505060405180910390a36001905092915050565b600360009054906101000a900473ffffffffffffffffffffffffffffffffffffffff1673ffffffffffffffffffffffffffffffffffffffff163373ffffffffffffffffffffffffffffffffffffffff161415156110a557600080fd5b600015156110b257600080fd5b50565b600080600260003373ffffffffffffffffffffffffffffffffffffffff1673ffffffffffffffffffffffffffffffffffffffff16815260200190815260200160002060008573ffffffffffffffffffffffffffffffffffffffff1673ffffffffffffffffffffffffffffffffffffffff168152602001908152602001600020549050808311156111c6576000600260003373ffffffffffffffffffffffffffffffffffffffff1673ffffffffffffffffffffffffffffffffffffffff16815260200190815260200160002060008673ffffffffffffffffffffffffffffffffffffffff1673ffffffffffffffffffffffffffffffffffffffff1681526020019081526020016000208190555061125a565b6111d98382611e5a90919063ffffffff16565b600260003373ffffffffffffffffffffffffffffffffffffffff1673ffffffffffffffffffffffffffffffffffffffff16815260200190815260200160002060008673ffffffffffffffffffffffffffffffffffffffff1673ffffffffffffffffffffffffffffffffffffffff168152602001908152602001600020819055505b8373ffffffffffffffffffffffffffffffffffffffff163373ffffffffffffffffffffffffffffffffffffffff167f8c5be1e5ebec7d5bd14f71427d1e84f3dd0314c0f7b2291e5b200ac8c7c3b925600260003373ffffffffffffffffffffffffffffffffffffffff1673ffffffffffffffffffffffffffffffffffffffff16815260200190815260200160002060008873ffffffffffffffffffffffffffffffffffffffff1673ffffffffffffffffffffffffffffffffffffffff168152602001908152602001600020546040518082815260200191505060405180910390a3600191505092915050565b6000600160008373ffffffffffffffffffffffffffffffffffffffff1673ffffffffffffffffffffffffffffffffffffffff168152602001908152602001600020549050919050565b6000600360009054906101000a900473ffffffffffffffffffffffffffffffffffffffff1673ffffffffffffffffffffffffffffffffffffffff163373ffffffffffffffffffffffffffffffffffffffff161415156113ed57600080fd5b600360149054906101000a900460ff1615151561140957600080fd5b6001600360146101000a81548160ff0219169083151502179055507fae5184fba832cb2b1f702aca6117b8d265eaf03ad33eb133f19dde0f5920fa0860405160405180910390a16001905090565b600360009054906101000a900473ffffffffffffffffffffffffffffffffffffffff1681565b60048054600181600116156101000203166002900480601f0160208091040260200160405190810160405280929190818152602001828054600181600116156101000203166002900480156115135780601f106114e857610100808354040283529160200191611513565b820191906000526020600020905b8154815290600101906020018083116114f657829003601f168201915b505050505081565b600360009054906101000a900473ffffffffffffffffffffffffffffffffffffffff1673ffffffffffffffffffffffffffffffffffffffff163373ffffffffffffffffffffffffffffffffffffffff1614151561157757600080fd5b60008111151561158657600080fd5b600160008373ffffffffffffffffffffffffffffffffffffffff1673ffffffffffffffffffffffffffffffffffffffff1681526020019081526020016000205481111515156115d457600080fd5b61162681600160008573ffffffffffffffffffffffffffffffffffffffff1673ffffffffffffffffffffffffffffffffffffffff16815260200190815260200160002054611e5a90919063ffffffff16565b600160008473ffffffffffffffffffffffffffffffffffffffff1673ffffffffffffffffffffffffffffffffffffffff1681526020019081526020016000208190555061167e81600054611e5a90919063ffffffff16565b6000819055508173ffffffffffffffffffffffffffffffffffffffff167fcc16f5dbb4873280815c1ee09dbd06736cffcc184412cf7a71a0fdb75d397ca5826040518082815260200191505060405180910390a25050565b600360009054906101000a900473ffffffffffffffffffffffffffffffffffffffff1673ffffffffffffffffffffffffffffffffffffffff163373ffffffffffffffffffffffffffffffffffffffff1614151561173257600080fd5b600360009054906101000a900473ffffffffffffffffffffffffffffffffffffffff1673ffffffffffffffffffffffffffffffffffffffff166108fc3073ffffffffffffffffffffffffffffffffffffffff16319081150290604051600060405180830381858888f1935050505015156117a857fe5b565b60008073ffffffffffffffffffffffffffffffffffffffff168373ffffffffffffffffffffffffffffffffffffffff16141515156117e757600080fd5b600160003373ffffffffffffffffffffffffffffffffffffffff1673ffffffffffffffffffffffffffffffffffffffff16815260200190815260200160002054821115151561183557600080fd5b61188782600160003373ffffffffffffffffffffffffffffffffffffffff1673ffffffffffffffffffffffffffffffffffffffff16815260200190815260200160002054611e5a90919063ffffffff16565b600160003373ffffffffffffffffffffffffffffffffffffffff1673ffffffffffffffffffffffffffffffffffffffff1681526020019081526020016000208190555061191c82600160008673ffffffffffffffffffffffffffffffffffffffff1673ffffffffffffffffffffffffffffffffffffffff16815260200190815260200160002054611e7390919063ffffffff16565b600160008573ffffffffffffffffffffffffffffffffffffffff1673ffffffffffffffffffffffffffffffffffffffff168152602001908152602001600020819055508273ffffffffffffffffffffffffffffffffffffffff163373ffffffffffffffffffffffffffffffffffffffff167fddf252ad1be2c89b69c2b068fc378daa952ba7f163c4a11628f55a4df523b3ef846040518082815260200191505060405180910390a36001905092915050565b60088054600181600116156101000203166002900480601f016020809104026020016040519081016040528092919081815260200182805460018160011615610100020316600290048015611a645780601f10611a3957610100808354040283529160200191611a64565b820191906000526020600020905b815481529060010190602001808311611a4757829003601f168201915b505050505081565b6000611afd82600260003373ffffffffffffffffffffffffffffffffffffffff1673ffffffffffffffffffffffffffffffffffffffff16815260200190815260200160002060008673ffffffffffffffffffffffffffffffffffffffff1673ffffffffffffffffffffffffffffffffffffffff16815260200190815260200160002054611e7390919063ffffffff16565b600260003373ffffffffffffffffffffffffffffffffffffffff1673ffffffffffffffffffffffffffffffffffffffff16815260200190815260200160002060008573ffffffffffffffffffffffffffffffffffffffff1673ffffffffffffffffffffffffffffffffffffffff168152602001908152602001600020819055508273ffffffffffffffffffffffffffffffffffffffff163373ffffffffffffffffffffffffffffffffffffffff167f8c5be1e5ebec7d5bd14f71427d1e84f3dd0314c0f7b2291e5b200ac8c7c3b925600260003373ffffffffffffffffffffffffffffffffffffffff1673ffffffffffffffffffffffffffffffffffffffff16815260200190815260200160002060008773ffffffffffffffffffffffffffffffffffffffff1673ffffffffffffffffffffffffffffffffffffffff168152602001908152602001600020546040518082815260200191505060405180910390a36001905092915050565b6000600260008473ffffffffffffffffffffffffffffffffffffffff1673ffffffffffffffffffffffffffffffffffffffff16815260200190815260200160002060008373ffffffffffffffffffffffffffffffffffffffff1673ffffffffffffffffffffffffffffffffffffffff16815260200190815260200160002054905092915050565b600760009054906101000a900460ff1681565b600360009054906101000a900473ffffffffffffffffffffffffffffffffffffffff1673ffffffffffffffffffffffffffffffffffffffff163373ffffffffffffffffffffffffffffffffffffffff16141515611d5e57600080fd5b600073ffffffffffffffffffffffffffffffffffffffff168173ffffffffffffffffffffffffffffffffffffffff1614151515611d9a57600080fd5b8073ffffffffffffffffffffffffffffffffffffffff16600360009054906101000a900473ffffffffffffffffffffffffffffffffffffffff1673ffffffffffffffffffffffffffffffffffffffff167f8be0079c531659141344cd1fd0a4f28419497f9722a3daafe3b4186f6b6457e060405160405180910390a380600360006101000a81548173ffffffffffffffffffffffffffffffffffffffff021916908373ffffffffffffffffffffffffffffffffffffffff16021790555050565b6000828211151515611e6857fe5b818303905092915050565b6000808284019050838110151515611e8757fe5b8091505092915050565b6000816040518082805190602001908083835b602083101515611ec95780518252602082019150602081019050602083039250611ea4565b6001836020036101000a038019825116818451168082178552505050505050905001915050604051809103902060001916836040518082805190602001908083835b602083101515611f305780518252602082019150602081019050602083039250611f0b565b6001836020036101000a038019825116818451168082178552505050505050905001915050604051809103902060001916149050929150505600a165627a7a723058203f84458f6c70719561960cfc16c5c9e6bbb758914c261c3643cdfd420d2236290029a165627a7a723058200696e6e825c97e1fc1307a59ca9d57b9e670ffdc36a0d3637a7aa12123302d0e0029",
  "source": "pragma solidity ^0.4.17;\n\nimport 'zeppelin-solidity/contracts/ownership/Ownable.sol';\nimport 'zeppelin-solidity/contracts/ownership/HasNoEther.sol';\nimport './Card.sol';\n\ncontract MTGEX is Ownable, HasNoEther {\n  event CardAdded(string mtgexId);\n  event CardsMinted(string mtgexId, address addr, uint256 amount);\n  event RedemptionRequested(string mtgexId, address addr, uint256 amount);\n  event RedemptionReceived(string mtgexId, address addr, uint256 amount, string secret);\n  event RedemptionConfirmed(string mtgexId, address addr, uint256 amount);\n  event RedemptionRejected(string mtgexId, address addr, uint256 amount);\n  event RedemptionCancelled(string mtgexId, address addr, uint256 amount);\n\n  /**\n  * A mapping of our own \"mtgexId\" to Card contracts.\n  */\n  mapping(bytes32 => Card) cards;\n\n  /**\n  * A mapping of \"mtgexId\" to Redemptions for that Card.\n  */\n  mapping(bytes32 => mapping(address => Redemption)) redemptionQueue;\n\n  struct Redemption {\n    string mtgexId;\n    address addr;\n    uint256 amount;\n    string secret;\n  }\n\n  /**\n  * Constructor, nothing really to see here...\n  */\n  function MTGEX() public {\n    //\n  }\n\n  /**\n  * A contract factory that allows this contract owner to create an arbitrary token contract.\n  * @param _mtgjsonId the id provided by the wonderful mtgjson.com\n  * @param _foil whether the card is foil or not\n  * @param _condition the condition (nm, pl, hp). As damaged cards are not at all fungible, those have been excluded\n  */\n  function createCardContract(string _mtgjsonId, bool _foil, string _condition) public onlyOwner {\n    string memory mtgexId = getMtgexId(_mtgjsonId, _foil, _condition);\n    Card card = cards[keccak256(mtgexId)];\n    require(false == cardExists(card));\n    card = new Card(mtgexId, _mtgjsonId, _foil, _condition);\n    cards[keccak256(mtgexId)] = card;\n    CardAdded(mtgexId);\n  }\n\n  /**\n  * Constructs a unique id for a Card from its properties: condition, foil or non foil, mtgjsonId\n  * Format is {nm|pl|hp}_{fl|nf}_mtgjsonId\n  */\n  function getMtgexId(string _mtgjsonId, bool _foil, string _condition) internal pure returns (string mtgexId) {\n    return strConcat(_condition, _foil ? \"_fl_\" : \"_nf_\", _mtgjsonId);\n  }\n\n  /**\n  * String concatenation function.\n  */\n  function strConcat(string _a, string _b, string _c) internal pure returns (string){\n      bytes memory _ba = bytes(_a);\n      bytes memory _bb = bytes(_b);\n      bytes memory _bc = bytes(_c);\n      string memory abc = new string(_ba.length + _bb.length + _bc.length);\n      bytes memory babc = bytes(abc);\n      uint k = 0;\n      for (uint i = 0; i < _ba.length; i++) babc[k++] = _ba[i];\n      for (i = 0; i < _bb.length; i++) babc[k++] = _bb[i];\n      for (i = 0; i < _bc.length; i++) babc[k++] = _bc[i];\n      return string(babc);\n  }\n\n  /**\n  * Mints tokens for a specific Card and gives them to a specific address.\n  * @param _mtgexId the mtgex identifier for the Card\n  * @param _to the wallet address to give the tokens to\n  * @param _amount the amount of tokens to mint, as an integer\n  */\n  function mintTokens(string _mtgexId, address _to, uint256 _amount) public onlyOwner {\n    require(_amount > 0);\n    Card card = cards[keccak256(_mtgexId)];\n    require(cardExists(card));\n    card.mint(_to, _amount * 1000000000000000000);\n    CardsMinted(_mtgexId, _to, _amount);\n  }\n\n  /**\n  * Step 1 of 3 (token user)\n  * Initiates the redemption process for the calling user for the given mtgexId and amount.\n  * @param _mtgexId the mtgex identifier for the Card\n  * @param _amount the amount of tokens to redeem for physical cards\n  */\n  function initiateRedemption(string _mtgexId, uint256 _amount) public {\n    require(redemptionExists(redemptionQueue[keccak256(_mtgexId)][msg.sender]) == false);\n    Card card = cards[keccak256(_mtgexId)];\n    require(cardExists(card));\n    require(_amount > 0);\n    require(card.balanceOf(msg.sender) >= _amount * 1000000000000000000);\n    card.burn(msg.sender, _amount * 1000000000000000000);\n    redemptionQueue[keccak256(_mtgexId)][msg.sender] = Redemption({mtgexId: _mtgexId, addr: msg.sender, amount: _amount, secret:\"\"});\n    RedemptionRequested(_mtgexId, msg.sender, _amount);\n  }\n\n  /**\n  * Step 2 of 3 (contract owner)\n  * Called by the contract owner when a redemption form is received in the mail.\n  *\n  * @param _mtgexId the mtgex identifier for the Card\n  * @param _from the wallet address provided on the redemption form\n  * @param _secret the secret passcode provided on the redemption form.  Obviously this is no longer secret after calling this function.\n  *                This allows the token redeemer to confirm that the redemption form received is the one they sent.\n  */\n  function receiveRedemption(string _mtgexId, address _from, string _secret) public onlyOwner {\n    Redemption storage redemption = redemptionQueue[keccak256(_mtgexId)][_from];\n    require(redemptionExists(redemption));\n    require(bytes(redemption.secret).length == 0);\n    redemption.secret = _secret;\n    RedemptionReceived(redemption.mtgexId, redemption.addr, redemption.amount, redemption.secret);\n  }\n\n  /**\n  * Step 3 of 3 (token user)\n  * Called by the token redeemer if the secret assigned by receiveRedemption() matches the secret on their mail in form.\n  *\n  * @param _mtgexId the mtgex identifier for the Card\n  * @param _secret a confirmation of the secret passcode\n  */\n  function confirmReceivedRedemption(string _mtgexId, string _secret) public {\n    Redemption storage redemption = redemptionQueue[keccak256(_mtgexId)][msg.sender];\n    require(redemptionExists(redemption));\n    require(redemption.addr == msg.sender);\n    require(bytes(redemption.secret).length != 0);\n    require(keccak256(redemption.secret) == keccak256(_secret));\n    RedemptionConfirmed(redemption.mtgexId, redemption.addr, redemption.amount);\n    delete(redemptionQueue[keccak256(redemption.mtgexId)][msg.sender]);\n  }\n\n  /**\n  * Step 3 of 3 (token user)\n  * Called by the token redeemer if the secret assigned by receiveRedemption() DOES NOT MATCH the secret on their mail in form.\n  * The secret is cleared and the contract owner will simply wait for the true redemption request to arrive in the mail.\n  * @param _mtgexId the mtgex identifier for the Card\n  */\n  function rejectReceivedRedemption(string _mtgexId) public {\n    Redemption storage redemption = redemptionQueue[keccak256(_mtgexId)][msg.sender];\n    require(redemptionExists(redemption));\n    require(redemption.addr == msg.sender);\n    redemption.secret = \"\";\n    RedemptionRejected(redemption.mtgexId, redemption.addr, redemption.amount);\n  }\n\n  /**\n  * Cancels a pending redemption and returns the tokens to the user.\n  * @param _mtgexId the mtgex identifier for the Card\n  */\n  function cancelRedemption(string _mtgexId) public {\n    Redemption storage redemption = redemptionQueue[keccak256(_mtgexId)][msg.sender];\n    require(redemptionExists(redemption));\n    require(bytes(redemption.secret).length == 0);\n\n    Card card = cards[keccak256(redemption.mtgexId)];\n    card.mint(msg.sender, redemption.amount * 1000000000000000000);\n    CardsMinted(redemption.mtgexId, msg.sender, redemption.amount);\n\n    RedemptionCancelled(redemption.mtgexId, redemption.addr, redemption.amount);\n    delete(redemptionQueue[keccak256(redemption.mtgexId)][msg.sender]);\n  }\n\n  function cardExists(Card _card) internal pure returns (bool exists) {\n    return address(_card) != 0;\n  }\n\n  function redemptionExists(Redemption _redemption) internal pure returns (bool exists) {\n    return bytes(_redemption.mtgexId).length > 0;\n  }\n\n  function getCardTokenAddress(string _mtgexId) public view returns (address addr) {\n    Card card = cards[keccak256(_mtgexId)];\n    require(cardExists(card));\n    return address(card);\n  }\n\n  function getMyRedemptionDetails(string _mtgexId) public view returns (uint256 amount, string secret) {\n    Redemption storage redemption = redemptionQueue[keccak256(_mtgexId)][msg.sender];\n    require(redemptionExists(redemption));\n    return (redemption.amount, redemption.secret);\n  }\n\n}\n",
  "sourcePath": "/Users/herbigm/Desktop/mtgex/eth/contracts/MTGEX.sol",
  "compiler": {
    "name": "solc",
    "version": "0.4.18+commit.9cf6e910.Emscripten.clang"
  },
  "schemaVersion": "1.0.1",
  "updatedAt": "2018-02-13T20:20:04.867Z"
}